:02005100AD07F9
:10005300E4FB74807E00A803088006CEA2E713CEDB
:1000630013D8F8FFEDF582EF558224FF92B4D2B690
:0A007300C2B60BBB08DCD2B5C2B563
:01007D002260
:10007E00AA07AF05120051AF027480A807088002CC
:10008E00C313D8FCF4F5807F017E001200A07580AA
:02009E00FF223F
:10000300C2B6C2B57D387C00E4FF12007E7D447C1D
:10001300007F0112007E7D427C007F0212007E7D04
:10002300217C007F0312007E7D217C007F0412006F
:100033007E7D427C007F0512007E7D447C007F062E
:0E00430012007E7D387C007F0712007E80B6A2
:1000A000EF1FAC0670011E4C600A7D027CEFDCFE87
:0400B000DDFC80EC07
:0100B4002229
:030000000200B546
:0C00B500787FE4F6D8FD75810702000397
:00000001FF
