:1003D0004345542D343A00476F6F64206C75636B4E
:0203E0007900A2
:1002CB001203BC7BFF7A0379D07D017F01120333CC
:1002DB007BFF7A0379D77D017F0212033312000370
:1002EB008F22E52260F7FB7A00750C027D017F02FD
:0502FB0012037480E80D
:1003A700EF1FAC0670011E4C600A7D027CEFDCFE7D
:0403B700DDFC80ECFD
:0103BB00221F
:0603E200C2A58F80D2A726
:0803E8007F027EEFDEFEDFFC68
:0103F00022EA
:0A03FD00C2A61203E2C2A70203E841
:10035600CFCDCFCECCCE1201CB7C007D0A1201CB05
:04036600ED2430FF53
:0A036A00D2A61203E2C2A70203E8C4
:10039100AE07BE0104ED148006BE0209ED243F4400
:0603A10080FF1203FD22A3
:1003BC007F381203FD7F0C1203FD7F061203FD7FB5
:0403CC00010203FD2A
:0A040700AC03120391AF0402036A74
:060333008B088A09890A0B
:10033900120391E4FDAB08AA09A90A8D827583000D
:0C03490012018CFF600612036A0D80E9AF
:010355002285
:0C0300007F0AEA24FFFDE434FFFC7E00CD
:08030C008E0D8F0E8C0F8D1079
:100314007F017E00E4FBEBC39510E50F6480F87465
:0E0324008098500AAC0DAD0E1201B90B80E8A6
:0103320022A8
:040374008A0A8B0B5B
:10037800120391AA0CEAD39400400D120300AC0AB0
:08038800AD0B1203561A80EDC3
:01039000224A
:10022000120391C3EA64809480400B7F2B12036A0F
:100230008A168B17800E7F2D12036AC3E49BF51775
:10024000E49AF516AA15EAD39400400D120300AC07
:0902500016AD171203561A80EDD9
:010259002282
:04025A008A1A8B1B56
:10025E00120391AA1CEAD3940040297F10120302C4
:10026E00AC1AAD1BCFCDCFCECCCE1201CBEF540FEF
:10027E00FEC3940AEE5004243080022437FF12038A
:04028E006A1A80D197
:010292002249
:040293008A1F8B2013
:10029700120391AA21EAD394004028EA24FFFDE43F
:1002A70034FFFC7F027E0012030CAC1FAD20CFCDC4
:1002B700CFCECCCE1201CBEF54012430FF12036A0C
:0302C7001A80D2C8
:0102CA002211
:10000300E4F5087590FFC2932097137F14FE120343
:10001300A73097FD7F147E001203A7750801209671
:10002300147F147E001203A73096FD7F147E001206
:1000330003A77508052095147F147E001203A730CB
:1000430095FD7F147E001203A77508092094147F81
:10005300147E001203A73094FD7F147E001203A7C1
:1000630075080D7590FFC2922097147F147E0012BD
:1000730003A73097FD7F147E001203A775080220A3
:1000830096147F147E001203A73096FD7F147E0022
:100093001203A77508062095147F147E001203A788
:1000A3003095FD7F147E001203A775080A2094146F
:1000B3007F147E001203A73094FD7F147E00120389
:1000C300A775080E7590FFC2912097147F147E00C8
:1000D3001203A73097FD7F147E001203A775080350
:1000E3002096147F147E001203A73096FD7F147EA2
:1000F300001203A77508072095147F147E001203CE
:10010300A73095FD7F147E001203A775080B20947A
:10011300147F147E001203A73094FD7F147E001217
:1001230003A775080F7590FFC2902097147F147E64
:10013300001203A73097FD7F147E001203A77508F2
:10014300042096147F147E001203A73096FD7F14BB
:100153007E001203A77508082095147F147E0012F1
:1001630003A73095FD7F147E001203A775080C20AA
:1001730094147F147E001203A73094FD7F147E0035
:080183001203A7750810AF0874
:01018B002251
:030000000203F107
:0C03F100787FE4F6D8FD7581220202CB73
:10018C00BB010CE58229F582E5833AF583E0225028
:10019C0006E92582F8E622BBFE06E92582F8E22272
:0D01AC00E58229F582E5833AF583E493228C
:1001B900EF8DF0A4A8F0CF8CF0A428CE8DF0A42E5A
:0201C900FE2214
:1001CB00BC000BBE0029EF8DF084FFADF022E4CC18
:1001DB00F875F008EF2FFFEE33FEEC33FCEE9DECE1
:1001EB00984005FCEE9DFE0FD5F0E9E4CEFD22ED27
:1001FB00F8F5F0EE8420D21CFEADF075F008EF2F71
:10020B00FFED33FD4007985006D5F0F222C398FD61
:05021B000FD5F0EA22FE
:00000001FF
